:100000004AC064C063C062C061C0E7C05FC05EC078
:100010005DC05CC05BC05AC059C058C057C0080022
:100020000000BE922449123EABAAAA2ABECDCCCC77
:100030004C3E00000080BEABAAAAAA3E0000000011
:10004000BF000000803F0000000000084178D3BBE3
:100050004387D1133D190E3CC3BD4282AD2B3E6890
:10006000EC8276BED98FE1A93E4C80EFFFBE01C481
:10007000FF7F3F000000000000000000370000008C
:1000800000003800020202020202010204081020ED
:1000900001020000040011241FBECFE5D1E0DEBF45
:1000A000CDBF10E0A0E6B0E0ECEFF9E002C00590B3
:1000B0000D92A036B107D9F720E0A0E6B0E001C06C
:1000C0001D92AD36B207E1F7D2D096C499CFE0E9E0
:1000D000F0E02491EAE8F0E09491E4E8F0E0E491C3
:1000E000EE23C1F0222329F02130A9F42AB52F777D
:1000F0002ABDF0E0EE0FFF1FE258FF4FA591B4912B
:1001000081111AC08FB7F8942C91E92FE095E22362
:10011000EC938FBF0895223019F42AB52F7DE8CFD4
:10012000233021F420B72F7D20BFE3CF243009F7FF
:100130002CB52F7D2CBDDDCF8FB7F894EC91E92B3A
:10014000E7CFEAE8F0E02491E4E8F0E08491882346
:1001500099F090E0880F991FFC01E858FF4FA59196
:10016000B491FC01E258FF4F859194918FB7F894B8
:10017000EC91E22BEC938FBF08958F7087B987B114
:1001800087B9369A3699FECF84B195B108953FB7B5
:10019000F8948091650090916600A0916700B091FD
:1001A000680022B708B601FE05C02F3F19F001967E
:1001B000A11DB11D3FBFBA2FA92F982F8827BC01C1
:1001C000CD01620F711D811D911D43E0660F771FE8
:1001D000881F991F4A95D1F708951F920F920FB665
:1001E0000F9211242F933F938F939F93AF93BF93BD
:1001F0008091610090916200A0916300B0916400D1
:100200003091600026E0230F2D3768F129E8230F95
:100210000396A11DB11D209360008093610090930F
:100220006200A0936300B093640080916500909198
:100230006600A0916700B09168000196A11DB11DF4
:100240008093650090936600A0936700B093680068
:10025000BF91AF919F918F913F912F910F900FBEC2
:100260000F901F9018950296A11DB11DD4CF81B794
:1002700081BF78948AB582608ABD8AB581608ABD63
:1002800083B7887F836083BF789489B7826089BF92
:1002900080B7807F80BF80B7806880BF80B7806470
:1002A00080BF8CB580648CBD8FEF8DBD80B78760BB
:1002B00080BF86B18877866886B9379A42DF81E049
:1002C00006DF65DFEB0120EDC22E27E0D22EE12C08
:1002D000F12C5DDF6C1B7D0B683E734008F091C014
:1002E000C114D104E104F104A1F744244A9483E049
:1002F000582E612C712C90E9292E90E0392E83E83C
:100300003CDFBC01990F880B990B07D29B01AC0114
:1003100060E070EC8FE794E465D120E030E040E8E5
:100320005FE3FBD020E030E44CE156E4C7D286D254
:100330006B017C012CE63FEC48E554E3BFD2A701FA
:100340009601BCD2A7019601B9D24B015C0126ED02
:1003500034E649E759E3C701B601B0D22BEC38E4E3
:1003600044E85AE3DBD09B01AC01C501B401D6D00F
:100370009B01AC0160E070E080E89FE333D123E3B0
:1003800033E948E853E4C9D04B015C01809269002D
:1003900090926A00A0926B00B0926C0082E8EDDE51
:1003A000BC01990F880B990B24E630E040E050E047
:1003B0005DD0A301920173D069017A01F4E6CF0EFA
:1003C000D11CE11CF11C2AE939E949E15FEBC501C7
:1003D000B40174D24B015C01B601DD0C880B990BA2
:1003E0009CD19B01AC01C501B40198D063D1162FFB
:1003F000C62FD72FA6DE1C161D068CF080E067DE08
:100400007ECFC114D104E104F10409F46ECF81E080
:10041000C81AD108E108F108C851DC4F5ACFCF3FC4
:10042000D10514F081E0EBCFF1018491813029F402
:100430008AB580688ABD19BD62CF823029F48AB539
:1004400080628ABD18BD5BCF833029F480B780629B
:1004500080BF1EBD54CF843029F48CB580628CBD22
:100460001BBD4DCFC038D105ECF6C8CFEE27FF2716
:10047000AA27BB2708C0A20FB31FE41FF51F220F36
:10048000331F441F551F969587957795679598F369
:100490007040A9F7009799F7BD01CF010895052E87
:1004A00097FB16F400940FD057FD05D014D007FC2D
:1004B00002D046F408C050954095309521953F4FA5
:1004C0004F4F5F4F089590958095709561957F4F40
:1004D0008F4F9F4F0895A1E21A2EAA1BBB1BFD014F
:1004E0000DC0AA1FBB1FEE1FFF1FA217B307E40713
:1004F000F50720F0A21BB30BE40BF50B661F771F6B
:10050000881F991F1A9469F760957095809590954A
:100510009B01AC01BD01CF0108955058BB27AA270C
:100520000ED04DC13ED130F043D120F031F49F3F89
:1005300011F41EF433C10EF4E095E7FB29C1E92F55
:100540004FD180F3BA17620773078407950718F035
:1005500071F49EF567C10EF4E0950B2EBA2FA02D15
:100560000B01B90190010C01CA01A0011124FF2760
:10057000591B99F0593F50F4503E68F11A16F0405B
:10058000A22F232F342F4427585FF3CF469537955A
:100590002795A795F0405395C9F77EF41F16BA0B1F
:1005A000620B730B840BBAF09150A1F0FF0FBB1FCD
:1005B000661F771F881FC2F70EC0BA0F621F731F16
:1005C000841F48F4879577956795B795F7959E3F73
:1005D00008F0B3CF9395880F08F09927EE0F979501
:1005E000879508950CD0EBC0E3D040F0DAD030F01E
:1005F00021F45F3F19F0CCC0511115C1CFC0F0D02C
:1006000098F39923C9F35523B1F3951B550BBB27D9
:10061000AA2762177307840738F09F5F5F4F220F86
:10062000331F441FAA1FA9F333D00E2E3AF0E0E87F
:1006300030D091505040E695001CCAF729D0FE2FCB
:1006400027D0660F771F881FBB1F2617370748075D
:10065000AB07B0E809F0BB0B802DBF01FF27935813
:100660005F4F2AF09E3F510568F092C0DCC05F3FAB
:10067000ECF3983EDCF3869577956795B795F795FB
:100680009F5FC9F7880F911D9695879597F90895F3
:10069000E1E0660F771F881FBB1F6217730784078F
:1006A000BA0720F0621B730B840BBA0BEE1F88F79E
:1006B000E095089504D06894B111B5C0089598D01C
:1006C00088F09F5790F0B92F9927B751A0F0D1F03B
:1006D000660F771F881F991F1AF0BA95C9F712C0C5
:1006E000B13081F09FD0B1E008959CC0672F782F82
:1006F0008827B85F39F0B93FCCF386957795679531
:10070000B395D9F73EF490958095709561957F4F9C
:100710008F4F9F4F0895E89409C097FB3EF4909542
:100720008095709561957F4F8F4F9F4F9923A9F0CA
:10073000F92F96E9BB279395F69587957795679559
:10074000B795F111F8CFFAF4BB0F11F460FF1BC09D
:100750006F5F7F4F8F4F9F4F16C0882311F096E930
:1007600011C0772321F09EE8872F762F05C06623DE
:1007700071F096E8862F70E060E02AF09A95660F97
:10078000771F881FDAF7880F9695879597F9089550
:1007900097F99F6780E870E060E008959FEF80EC34
:1007A000089500240A9416161706180609060895D7
:1007B00000240A9412161306140605060895092E3D
:1007C0000394000C11F4882352F0BB0F40F4BF2BAC
:1007D00011F460FF04C06F5F7F4F8F4F9F4F0895EC
:1007E00057FD9058440F551F59F05F3F71F04795E2
:1007F000880F97FB991F61F09F3F79F087950895C7
:10080000121613061406551FF2CF4695F1DF08C0E5
:10081000161617061806991FF1CF86957105610502
:1008200008940895E894BB2766277727CB0197F9AA
:1008300008950EF0AEC0B2CF6894AACFD9DFC8F346
:100840009923D1F3C6F3DF93CF931F930F93FF92B6
:10085000C92FDD2788232AF02197660F771F881F6D
:10086000DAF720E030E040E85FEB9FE3883920F0E2
:10087000803E30F021968F7751DEEEE1F0E003C04C
:100880004DDEEBE4F0E093D08B01BE01EC01FB2EDA
:100890006F5771097595771F880B990B3EDF28E11B
:1008A00032E741E35FE315D0AF2D9801AE01FF9031
:1008B0000F911F91CF91DF9142DE81CF0AD07FCF80
:1008C00070DF28F075DF18F0952309F061CF66CF4F
:1008D000AACF86DFA8F39923D9F35523C9F3950F3F
:1008E00050E0551FAA27EE27FF27BB2700240894B6
:1008F000679520F4E20FF31FB41F0A1E220F331F67
:10090000441FAA1F6695A9F7779530F4F30FB41F1B
:100910000A1E121E08F46395330F441FAA1F221FDC
:10092000769599F7879520F4B40F0A1E121E631F5F
:10093000440FAA1F221F331F8695A9F7862F712DFA
:10094000602D11249F5750408AF0E1F088234AF02F
:10095000EE0FFF1FBB1F661F771F881F915050406F
:10096000A9F79E3F510570F013CF5DCF5F3FECF3C9
:10097000983EDCF3869577956795B795F795E7955B
:100980009F5FC1F7FE2B880F911D9695879597F96C
:1009900008959F3F31F0915020F4879577956795A2
:1009A000B795880F911D9695879597F90895DF93D0
:1009B000CF931F930F93FF92EF92DF927B018C01F5
:1009C000689405C0DA2EEF0184DFFE01E894A5915A
:1009D0002591359145915591AEF3EF01B0DDFE01C2
:1009E0009701A801DA9479F7DF90EF90FF900F91CB
:0C09F0001F91CF91DF910895F894FFCF84
:00000001FF
